:020000040000FA
:1000000007309F00A00105280900831646308100B3
:1000100020308500FF308600831285018601043080
:100020007E208500861EA0144820061CA010061FF6
:10003000A010A0181038201C1128A1002010A0101A
:100040008420043088200508CF39A4002108CF3946
:10005000A5002402031946282011051E3128211A63
:1000600020150508CF39A400A50120192416201950
:1000700025165820FA30A2007120A4012108CF399A
:10008000A50020192416201925165820210811280A
:100090002014061C0C34061F0C34861F5528861CA1
:1000A0001634861D5134061D9134201005080800B1
:1000B000FF30A6000130A700240885002608A8000C
:1000C0006A20250885002708A8006A20A70AA60B31
:1000D0005C2808000130A900A90B6C28A80B6A282D
:1000E00008006E30A30000000000000000000000C7
:1000F0000000A30B7328A20B7128003483169B0009
:100100001C141A088312080083169A008312080030
:100110008C1383169B001C158B1355309D00AA3041
:100120009D009C1483128C1F932883161C1183122C
:020130000800C5
:02400E00103F61
:0A4200004D005A0008000200010002
:00000001FF
